{
  "contractName": "EtherDEX",
  "abi": [
    {
      "constant": true,
      "inputs": [
        {
          "name": "",
          "type": "address"
        },
        {
          "name": "",
          "type": "bytes32"
        }
      ],
      "name": "orderFills",
      "outputs": [
        {
          "name": "",
          "type": "uint256"
        }
      ],
      "payable": false,
      "stateMutability": "view",
      "type": "function"
    },
    {
      "constant": true,
      "inputs": [],
      "name": "isContractDeprecated",
      "outputs": [
        {
          "name": "",
          "type": "bool"
        }
      ],
      "payable": false,
      "stateMutability": "view",
      "type": "function"
    },
    {
      "constant": true,
      "inputs": [
        {
          "name": "",
          "type": "address"
        },
        {
          "name": "",
          "type": "address"
        }
      ],
      "name": "tokens",
      "outputs": [
        {
          "name": "",
          "type": "uint256"
        }
      ],
      "payable": false,
      "stateMutability": "view",
      "type": "function"
    },
    {
      "constant": true,
      "inputs": [],
      "name": "feeMake",
      "outputs": [
        {
          "name": "",
          "type": "uint256"
        }
      ],
      "payable": false,
      "stateMutability": "view",
      "type": "function"
    },
    {
      "constant": true,
      "inputs": [],
      "name": "feeAccount",
      "outputs": [
        {
          "name": "",
          "type": "address"
        }
      ],
      "payable": false,
      "stateMutability": "view",
      "type": "function"
    },
    {
      "constant": true,
      "inputs": [],
      "name": "previousContract",
      "outputs": [
        {
          "name": "",
          "type": "address"
        }
      ],
      "payable": false,
      "stateMutability": "view",
      "type": "function"
    },
    {
      "constant": true,
      "inputs": [],
      "name": "contractVersion",
      "outputs": [
        {
          "name": "",
          "type": "uint256"
        }
      ],
      "payable": false,
      "stateMutability": "view",
      "type": "function"
    },
    {
      "constant": true,
      "inputs": [
        {
          "name": "",
          "type": "address"
        },
        {
          "name": "",
          "type": "bytes32"
        }
      ],
      "name": "orders",
      "outputs": [
        {
          "name": "",
          "type": "bool"
        }
      ],
      "payable": false,
      "stateMutability": "view",
      "type": "function"
    },
    {
      "constant": true,
      "inputs": [],
      "name": "feeTake",
      "outputs": [
        {
          "name": "",
          "type": "uint256"
        }
      ],
      "payable": false,
      "stateMutability": "view",
      "type": "function"
    },
    {
      "constant": true,
      "inputs": [],
      "name": "nextContract",
      "outputs": [
        {
          "name": "",
          "type": "address"
        }
      ],
      "payable": false,
      "stateMutability": "view",
      "type": "function"
    },
    {
      "constant": true,
      "inputs": [],
      "name": "admin",
      "outputs": [
        {
          "name": "",
          "type": "address"
        }
      ],
      "payable": false,
      "stateMutability": "view",
      "type": "function"
    },
    {
      "inputs": [
        {
          "name": "admin_",
          "type": "address"
        },
        {
          "name": "feeAccount_",
          "type": "address"
        },
        {
          "name": "feeMake_",
          "type": "uint256"
        },
        {
          "name": "feeTake_",
          "type": "uint256"
        },
        {
          "name": "_previousContract",
          "type": "address"
        }
      ],
      "payable": false,
      "stateMutability": "nonpayable",
      "type": "constructor"
    },
    {
      "payable": true,
      "stateMutability": "payable",
      "type": "fallback"
    },
    {
      "anonymous": false,
      "inputs": [
        {
          "indexed": false,
          "name": "tokenGet",
          "type": "address"
        },
        {
          "indexed": false,
          "name": "amountGet",
          "type": "uint256"
        },
        {
          "indexed": false,
          "name": "tokenGive",
          "type": "address"
        },
        {
          "indexed": false,
          "name": "amountGive",
          "type": "uint256"
        },
        {
          "indexed": false,
          "name": "expires",
          "type": "uint256"
        },
        {
          "indexed": false,
          "name": "nonce",
          "type": "uint256"
        },
        {
          "indexed": false,
          "name": "user",
          "type": "address"
        }
      ],
      "name": "Order",
      "type": "event"
    },
    {
      "anonymous": false,
      "inputs": [
        {
          "indexed": false,
          "name": "tokenGet",
          "type": "address"
        },
        {
          "indexed": false,
          "name": "amountGet",
          "type": "uint256"
        },
        {
          "indexed": false,
          "name": "tokenGive",
          "type": "address"
        },
        {
          "indexed": false,
          "name": "amountGive",
          "type": "uint256"
        },
        {
          "indexed": false,
          "name": "expires",
          "type": "uint256"
        },
        {
          "indexed": false,
          "name": "nonce",
          "type": "uint256"
        },
        {
          "indexed": false,
          "name": "user",
          "type": "address"
        },
        {
          "indexed": false,
          "name": "v",
          "type": "uint8"
        },
        {
          "indexed": false,
          "name": "r",
          "type": "bytes32"
        },
        {
          "indexed": false,
          "name": "s",
          "type": "bytes32"
        }
      ],
      "name": "Cancel",
      "type": "event"
    },
    {
      "anonymous": false,
      "inputs": [
        {
          "indexed": false,
          "name": "tokenGet",
          "type": "address"
        },
        {
          "indexed": false,
          "name": "amountGet",
          "type": "uint256"
        },
        {
          "indexed": false,
          "name": "tokenGive",
          "type": "address"
        },
        {
          "indexed": false,
          "name": "amountGive",
          "type": "uint256"
        },
        {
          "indexed": false,
          "name": "get",
          "type": "address"
        },
        {
          "indexed": false,
          "name": "give",
          "type": "address"
        }
      ],
      "name": "Trade",
      "type": "event"
    },
    {
      "anonymous": false,
      "inputs": [
        {
          "indexed": false,
          "name": "token",
          "type": "address"
        },
        {
          "indexed": false,
          "name": "user",
          "type": "address"
        },
        {
          "indexed": false,
          "name": "amount",
          "type": "uint256"
        },
        {
          "indexed": false,
          "name": "balance",
          "type": "uint256"
        }
      ],
      "name": "Deposit",
      "type": "event"
    },
    {
      "anonymous": false,
      "inputs": [
        {
          "indexed": false,
          "name": "token",
          "type": "address"
        },
        {
          "indexed": false,
          "name": "user",
          "type": "address"
        },
        {
          "indexed": false,
          "name": "amount",
          "type": "uint256"
        },
        {
          "indexed": false,
          "name": "balance",
          "type": "uint256"
        }
      ],
      "name": "Withdraw",
      "type": "event"
    },
    {
      "anonymous": false,
      "inputs": [
        {
          "indexed": false,
          "name": "user",
          "type": "address"
        }
      ],
      "name": "FundsMigrated",
      "type": "event"
    },
    {
      "constant": false,
      "inputs": [
        {
          "name": "admin_",
          "type": "address"
        }
      ],
      "name": "changeAdmin",
      "outputs": [],
      "payable": false,
      "stateMutability": "nonpayable",
      "type": "function"
    },
    {
      "constant": false,
      "inputs": [
        {
          "name": "feeAccount_",
          "type": "address"
        }
      ],
      "name": "changeFeeAccount",
      "outputs": [],
      "payable": false,
      "stateMutability": "nonpayable",
      "type": "function"
    },
    {
      "constant": false,
      "inputs": [
        {
          "name": "feeMake_",
          "type": "uint256"
        }
      ],
      "name": "changeFeeMake",
      "outputs": [],
      "payable": false,
      "stateMutability": "nonpayable",
      "type": "function"
    },
    {
      "constant": false,
      "inputs": [
        {
          "name": "feeTake_",
          "type": "uint256"
        }
      ],
      "name": "changeFeeTake",
      "outputs": [],
      "payable": false,
      "stateMutability": "nonpayable",
      "type": "function"
    },
    {
      "constant": false,
      "inputs": [
        {
          "name": "deprecated_",
          "type": "bool"
        },
        {
          "name": "nextContract_",
          "type": "address"
        }
      ],
      "name": "deprecate",
      "outputs": [],
      "payable": false,
      "stateMutability": "nonpayable",
      "type": "function"
    },
    {
      "constant": false,
      "inputs": [],
      "name": "deposit",
      "outputs": [],
      "payable": true,
      "stateMutability": "payable",
      "type": "function"
    },
    {
      "constant": false,
      "inputs": [
        {
          "name": "amount",
          "type": "uint256"
        }
      ],
      "name": "withdraw",
      "outputs": [],
      "payable": false,
      "stateMutability": "nonpayable",
      "type": "function"
    },
    {
      "constant": false,
      "inputs": [
        {
          "name": "token",
          "type": "address"
        },
        {
          "name": "amount",
          "type": "uint256"
        }
      ],
      "name": "depositToken",
      "outputs": [],
      "payable": false,
      "stateMutability": "nonpayable",
      "type": "function"
    },
    {
      "constant": false,
      "inputs": [
        {
          "name": "token",
          "type": "address"
        },
        {
          "name": "amount",
          "type": "uint256"
        }
      ],
      "name": "withdrawToken",
      "outputs": [],
      "payable": false,
      "stateMutability": "nonpayable",
      "type": "function"
    },
    {
      "constant": true,
      "inputs": [
        {
          "name": "token",
          "type": "address"
        },
        {
          "name": "user",
          "type": "address"
        }
      ],
      "name": "balanceOf",
      "outputs": [
        {
          "name": "",
          "type": "uint256"
        }
      ],
      "payable": false,
      "stateMutability": "view",
      "type": "function"
    },
    {
      "constant": false,
      "inputs": [
        {
          "name": "tokenGet",
          "type": "address"
        },
        {
          "name": "amountGet",
          "type": "uint256"
        },
        {
          "name": "tokenGive",
          "type": "address"
        },
        {
          "name": "amountGive",
          "type": "uint256"
        },
        {
          "name": "expires",
          "type": "uint256"
        },
        {
          "name": "nonce",
          "type": "uint256"
        }
      ],
      "name": "order",
      "outputs": [],
      "payable": false,
      "stateMutability": "nonpayable",
      "type": "function"
    },
    {
      "constant": false,
      "inputs": [
        {
          "name": "tokenGet",
          "type": "address"
        },
        {
          "name": "amountGet",
          "type": "uint256"
        },
        {
          "name": "tokenGive",
          "type": "address"
        },
        {
          "name": "amountGive",
          "type": "uint256"
        },
        {
          "name": "expires",
          "type": "uint256"
        },
        {
          "name": "nonce",
          "type": "uint256"
        },
        {
          "name": "user",
          "type": "address"
        },
        {
          "name": "v",
          "type": "uint8"
        },
        {
          "name": "r",
          "type": "bytes32"
        },
        {
          "name": "s",
          "type": "bytes32"
        },
        {
          "name": "amount",
          "type": "uint256"
        }
      ],
      "name": "trade",
      "outputs": [],
      "payable": false,
      "stateMutability": "nonpayable",
      "type": "function"
    },
    {
      "constant": true,
      "inputs": [
        {
          "name": "tokenGet",
          "type": "address"
        },
        {
          "name": "amountGet",
          "type": "uint256"
        },
        {
          "name": "tokenGive",
          "type": "address"
        },
        {
          "name": "amountGive",
          "type": "uint256"
        },
        {
          "name": "expires",
          "type": "uint256"
        },
        {
          "name": "nonce",
          "type": "uint256"
        },
        {
          "name": "user",
          "type": "address"
        },
        {
          "name": "v",
          "type": "uint8"
        },
        {
          "name": "r",
          "type": "bytes32"
        },
        {
          "name": "s",
          "type": "bytes32"
        },
        {
          "name": "amount",
          "type": "uint256"
        },
        {
          "name": "sender",
          "type": "address"
        }
      ],
      "name": "testTrade",
      "outputs": [
        {
          "name": "",
          "type": "bool"
        }
      ],
      "payable": false,
      "stateMutability": "view",
      "type": "function"
    },
    {
      "constant": true,
      "inputs": [
        {
          "name": "tokenGet",
          "type": "address"
        },
        {
          "name": "amountGet",
          "type": "uint256"
        },
        {
          "name": "tokenGive",
          "type": "address"
        },
        {
          "name": "amountGive",
          "type": "uint256"
        },
        {
          "name": "expires",
          "type": "uint256"
        },
        {
          "name": "nonce",
          "type": "uint256"
        },
        {
          "name": "user",
          "type": "address"
        },
        {
          "name": "v",
          "type": "uint8"
        },
        {
          "name": "r",
          "type": "bytes32"
        },
        {
          "name": "s",
          "type": "bytes32"
        }
      ],
      "name": "availableVolume",
      "outputs": [
        {
          "name": "",
          "type": "uint256"
        }
      ],
      "payable": false,
      "stateMutability": "view",
      "type": "function"
    },
    {
      "constant": true,
      "inputs": [
        {
          "name": "tokenGet",
          "type": "address"
        },
        {
          "name": "amountGet",
          "type": "uint256"
        },
        {
          "name": "tokenGive",
          "type": "address"
        },
        {
          "name": "amountGive",
          "type": "uint256"
        },
        {
          "name": "expires",
          "type": "uint256"
        },
        {
          "name": "nonce",
          "type": "uint256"
        },
        {
          "name": "user",
          "type": "address"
        }
      ],
      "name": "amountFilled",
      "outputs": [
        {
          "name": "",
          "type": "uint256"
        }
      ],
      "payable": false,
      "stateMutability": "view",
      "type": "function"
    },
    {
      "constant": false,
      "inputs": [
        {
          "name": "tokenGet",
          "type": "address"
        },
        {
          "name": "amountGet",
          "type": "uint256"
        },
        {
          "name": "tokenGive",
          "type": "address"
        },
        {
          "name": "amountGive",
          "type": "uint256"
        },
        {
          "name": "expires",
          "type": "uint256"
        },
        {
          "name": "nonce",
          "type": "uint256"
        },
        {
          "name": "v",
          "type": "uint8"
        },
        {
          "name": "r",
          "type": "bytes32"
        },
        {
          "name": "s",
          "type": "bytes32"
        }
      ],
      "name": "cancelOrder",
      "outputs": [],
      "payable": false,
      "stateMutability": "nonpayable",
      "type": "function"
    },
    {
      "constant": false,
      "inputs": [
        {
          "name": "tokens_",
          "type": "address[]"
        }
      ],
      "name": "migrateFunds",
      "outputs": [],
      "payable": false,
      "stateMutability": "nonpayable",
      "type": "function"
    },
    {
      "constant": false,
      "inputs": [
        {
          "name": "_user",
          "type": "address"
        }
      ],
      "name": "depositEtherForUser",
      "outputs": [],
      "payable": true,
      "stateMutability": "payable",
      "type": "function"
    },
    {
      "constant": false,
      "inputs": [
        {
          "name": "_token",
          "type": "address"
        },
        {
          "name": "_amount",
          "type": "uint256"
        },
        {
          "name": "_user",
          "type": "address"
        }
      ],
      "name": "depositTokenForUser",
      "outputs": [],
      "payable": false,
      "stateMutability": "nonpayable",
      "type": "function"
    }
  ],
  "bytecode": "0x60806040523480156200001157600080fd5b5060405160a080620029178339810160409081528151602083015191830151606084015160809094015160008054600160a060020a03808616600160a060020a031992831617909255600180548388169083161790556002849055600387905560078054838516921691909117908190556008805460a060020a60ff02191690559395929316156200014457600760009054906101000a9004600160a060020a0316600160a060020a031663a0a8e4606040518163ffffffff167c0100000000000000000000000000000000000000000000000000000000028152600401602060405180830381600087803b1580156200010a57600080fd5b505af11580156200011f573d6000803e3d6000fd5b505050506040513d60208110156200013657600080fd5b50516001016009556200014a565b60016009555b50505050506127b8806200015f6000396000f3006080604052600436106101665763ffffffff60e060020a6000350416630a19b14a81146101dc5780630b9276661461022d57806319774d43146102615780631e6090f414610297578063278b8c0e146102c05780632d804ca2146103015780632e1a7d4d1461033e578063338b5dea146103565780633c2e2a751461037a578063508493bc146103a557806354d03b5c146103cc57806357786394146103e457806365d9d8e2146103f957806365e17c9d1461040d5780636c86888b1461043e57806371ffcb161461049857806378954b3b146104b95780638823a9c0146104ce5780638f283970146104e65780639e281a9814610507578063a0a8e4601461052b578063bb5f462914610540578063be3dd13114610564578063c281309e146105b9578063d0e30db0146105ce578063d8787fde146105d6578063e6213127146105eb578063f7888aec14610611578063f851a44014610638578063fb6e155f1461064d575b6040805160e560020a62461bcd02815260206004820152602860248201527f43616e6e6f742073656e6420455448206469726563746c7920746f207468652060448201527f436f6e7472616374000000000000000000000000000000000000000000000000606482015290519081900360840190fd5b3480156101e857600080fd5b5061022b600160a060020a0360043581169060243590604435811690606435906084359060a4359060c4351660ff60e43516610104356101243561014435610698565b005b34801561023957600080fd5b5061022b600160a060020a03600435811690602435906044351660643560843560a435610ac2565b34801561026d57600080fd5b50610285600160a060020a0360043516602435610c4e565b60408051918252519081900360200190f35b3480156102a357600080fd5b506102ac610c6b565b604080519115158252519081900360200190f35b3480156102cc57600080fd5b5061022b600160a060020a03600435811690602435906044351660643560843560a43560ff60c4351660e43561010435610c8c565b34801561030d57600080fd5b50610285600160a060020a0360043581169060243590604435811690606435906084359060a4359060c43516610fb2565b34801561034a57600080fd5b5061022b6004356110dc565b34801561036257600080fd5b5061022b600160a060020a036004351660243561124f565b34801561038657600080fd5b5061022b600160a060020a03600435811690602435906044351661148c565b3480156103b157600080fd5b50610285600160a060020a0360043581169060243516611674565b3480156103d857600080fd5b5061022b600435611691565b3480156103f057600080fd5b5061028561172d565b61022b600160a060020a0360043516611733565b34801561041957600080fd5b5061042261185d565b60408051600160a060020a039092168252519081900360200190f35b34801561044a57600080fd5b506102ac600160a060020a0360043581169060243590604435811690606435906084359060a4359060c43581169060ff60e4351690610104359061012435906101443590610164351661186c565b3480156104a457600080fd5b5061022b600160a060020a03600435166118c5565b3480156104c557600080fd5b50610422611920565b3480156104da57600080fd5b5061022b60043561192f565b3480156104f257600080fd5b5061022b600160a060020a03600435166119cb565b34801561051357600080fd5b5061022b600160a060020a0360043516602435611a11565b34801561053757600080fd5b50610285611cdc565b34801561054c57600080fd5b506102ac600160a060020a0360043516602435611ce2565b34801561057057600080fd5b506040805160206004803580820135838102808601850190965280855261022b95369593946024949385019291829185019084908082843750949750611d029650505050505050565b3480156105c557600080fd5b50610285611d70565b61022b611d76565b3480156105e257600080fd5b50610422611e05565b3480156105f757600080fd5b5061022b6004351515600160a060020a0360243516611e14565b34801561061d57600080fd5b50610285600160a060020a0360043581169060243516611e90565b34801561064457600080fd5b50610422611ebd565b34801561065957600080fd5b50610285600160a060020a0360043581169060243590604435811690606435906084359060a4359060c4351660ff60e435166101043561012435611ecc565b60006002308d8d8d8d8d8d6040516020018088600160a060020a0316600160a060020a03166c0100000000000000000000000002815260140187600160a060020a0316600160a060020a03166c0100000000000000000000000002815260140186815260200185600160a060020a0316600160a060020a03166c010000000000000000000000000281526014018481526020018381526020018281526020019750505050505050506040516020818303038152906040526040518082805190602001908083835b6020831061077e5780518252601f19909201916020918201910161075f565b51815160209384036101000a600019018019909216911617905260405191909301945091925050808303816000865af11580156107bf573d6000803e3d6000fd5b5050506040513d60208110156107d457600080fd5b5051600160a060020a038716600090815260056020908152604080832084845290915290205490915060ff1680610922575085600160a060020a031660018260405160200180807f19457468657265756d205369676e6564204d6573736167653a0a333200000000815250601c0182600019166000191681526020019150506040516020818303038152906040526040518082805190602001908083835b602083106108915780518252601f199092019160209182019101610872565b51815160209384036101000a60001901801990921691161790526040805192909401829003822060008084528383018087529190915260ff8e1683860152606083018d9052608083018c9052935160a08084019750919550601f1981019492819003909101925090865af115801561090d573d6000803e3d6000fd5b50505060206040510351600160a060020a0316145b801561092e5750874311155b80156109685750600160a060020a03861660009081526006602090815260408083208484529091529020548b9061096590846121e7565b11155b15156109e4576040805160e560020a62461bcd02815260206004820152603f60248201527f56616c69646174696f6e206572726f72206f72206f726465722065787069726560448201527f64206f72206e6f7420656e6f75676820766f6c756d6520746f20747261646500606482015290519081900360840190fd5b6109f28c8c8c8c8a87612205565b600160a060020a0386166000908152600660209081526040808320848452909152902054610a2090836121e7565b600160a060020a03871660009081526006602090815260408083208584529091529020557f6effdda786735d5033bfad5f53e5131abcced9e52be6c507b62d639685fbed6d8c838c8e8d8302811515610a7557fe5b60408051600160a060020a03968716815260208101959095529285168484015204606083015291891660808201523360a082015290519081900360c00190a1505050505050505050505050565b604080516c01000000000000000000000000308102602080840191909152600160a060020a03808b1683026034850152604884018a905288169091026068830152607c8201869052609c820185905260bc8083018590528351808403909101815260dc90920192839052815160009360029392909182918401908083835b60208310610b5f5780518252601f199092019160209182019101610b40565b51815160209384036101000a600019018019909216911617905260405191909301945091925050808303816000865af1158015610ba0573d6000803e3d6000fd5b5050506040513d6020811015610bb557600080fd5b5051336000818152600560209081526040808320858452825291829020805460ff191660011790558151600160a060020a038c811682529181018b905290891681830152606081018890526080810187905260a0810186905260c0810192909252519192507f3f7f2eda73683c21a15f9435af1028c93185b5f1fa38270762dc32be606b3e85919081900360e00190a150505050505050565b600660209081526000928352604080842090915290825290205481565b60085474010000000000000000000000000000000000000000900460ff1681565b604080516c01000000000000000000000000308102602080840191909152600160a060020a03808e1683026034850152604884018d90528b169091026068830152607c8201899052609c820188905260bc8083018890528351808403909101815260dc90920192839052815160009360029392909182918401908083835b60208310610d295780518252601f199092019160209182019101610d0a565b51815160209384036101000a600019018019909216911617905260405191909301945091925050808303816000865af1158015610d6a573d6000803e3d6000fd5b5050506040513d6020811015610d7f57600080fd5b505133600090815260056020908152604080832084845290915290205490915060ff1680610eb45750604080517f19457468657265756d205369676e6564204d6573736167653a0a333200000000602080830191909152603c80830185905283518084039091018152605c909201928390528151339360019392909182918401908083835b60208310610e235780518252601f199092019160209182019101610e04565b51815160209384036101000a60001901801990921691161790526040805192909401829003822060008084528383018087529190915260ff8d1683860152606083018c9052608083018b9052935160a08084019750919550601f1981019492819003909101925090865af1158015610e9f573d6000803e3d6000fd5b50505060206040510351600160a060020a0316145b1515610f0a576040805160e560020a62461bcd02815260206004820152601060248201527f56616c69646174696f6e206572726f7200000000000000000000000000000000604482015290519081900360640190fd5b3360008181526006602090815260408083208584528252918290208c90558151600160a060020a038e811682529181018d9052908b1681830152606081018a90526080810189905260a0810188905260c081019290925260ff861660e083015261010082018590526101208201849052517f1e0b760c386003e9cb9bcf4fcf3997886042859d9b6ed6320e804597fcdb28b0918190036101400190a150505050505050505050565b604080516c01000000000000000000000000308102602080840191909152600160a060020a03808c1683026034850152604884018b905289169091026068830152607c8201879052609c820186905260bc8083018690528351808403909101815260dc9092019283905281516000938493600293909282918401908083835b602083106110505780518252601f199092019160209182019101611031565b51815160209384036101000a600019018019909216911617905260405191909301945091925050808303816000865af1158015611091573d6000803e3d6000fd5b5050506040513d60208110156110a657600080fd5b5051600160a060020a03841660009081526006602090815260408083208484529091529020549250905050979650505050505050565b33600090815260008051602061276d8339815191526020526040902054811115611176576040805160e560020a62461bcd02815260206004820152602260248201527f43616e6e6f74207769746864726177206d6f7265207468616e20796f7520686160448201527f7665000000000000000000000000000000000000000000000000000000000000606482015290519081900360840190fd5b33600090815260008051602061276d833981519152602052604090205461119d90826123e9565b33600081815260008051602061276d8339815191526020526040808220939093559151909183156108fc02918491818181858888f193505050501580156111e8573d6000803e3d6000fd5b5033600081815260008051602061276d8339815191526020908152604080832054815193845291830193909352818301849052606082015290517ff341246adaac6f497bc2a656f546ab9e182111d630394f0c57c710a59a2cb5679181900360800190a150565b600160a060020a03821615156112d5576040805160e560020a62461bcd02815260206004820152602b60248201527f43616e6e6f74206465706f736974204554482077697468206465706f7369745460448201527f6f6b656e206d6574686f64000000000000000000000000000000000000000000606482015290519081900360840190fd5b604080517f23b872dd000000000000000000000000000000000000000000000000000000008152336004820152306024820152604481018390529051600160a060020a038416916323b872dd9160648083019260209291908290030181600087803b15801561134357600080fd5b505af1158015611357573d6000803e3d6000fd5b505050506040513d602081101561136d57600080fd5b505115156113eb576040805160e560020a62461bcd02815260206004820152603060248201527f596f75206469646e27742063616c6c20617070726f7665206d6574686f64206f60448201527f6e20546f6b656e20636f6e747261637400000000000000000000000000000000606482015290519081900360840190fd5b600160a060020a038216600090815260046020908152604080832033845290915290205461141990826121e7565b600160a060020a03831660008181526004602090815260408083203380855290835292819020859055805193845290830191909152818101849052606082019290925290517fdcbc1c05240f31ff3ad067ef1ee35ce4997762752e3a095284754544f4c709d79181900360800190a15050565b60085460009074010000000000000000000000000000000000000000900460ff16156114b757600080fd5b600160a060020a03841615156114cc57600080fd5b600160a060020a03821615156114e157600080fd5b600083116114ee57600080fd5b339050600081600160a060020a031663a0a8e4606040518163ffffffff1660e060020a028152600401602060405180830381600087803b15801561153157600080fd5b505af1158015611545573d6000803e3d6000fd5b505050506040513d602081101561155b57600080fd5b50511161156757600080fd5b604080517f23b872dd000000000000000000000000000000000000000000000000000000008152336004820152306024820152604481018590529051600160a060020a038616916323b872dd9160648083019260209291908290030181600087803b1580156115d557600080fd5b505af11580156115e9573d6000803e3d6000fd5b505050506040513d60208110156115ff57600080fd5b5051151561160c57600080fd5b600160a060020a03808516600090815260046020908152604080832093861683529290522054611642908463ffffffff6121e716565b600160a060020a0394851660009081526004602090815260408083209590971682529390935293909120929092555050565b600460209081526000928352604080842090915290825290205481565b600054600160a060020a031633146116a857600080fd5b600254811115611728576040805160e560020a62461bcd02815260206004820152602960248201527f4e6577206665652063616e6e6f7420626520686967686572207468616e20746860448201527f65206f6c64206f6e650000000000000000000000000000000000000000000000606482015290519081900360840190fd5b600255565b60025481565b60085460009074010000000000000000000000000000000000000000900460ff161561175e57600080fd5b600160a060020a038216151561177357600080fd5b6000341161178057600080fd5b339050600081600160a060020a031663a0a8e4606040518163ffffffff1660e060020a028152600401602060405180830381600087803b1580156117c357600080fd5b505af11580156117d7573d6000803e3d6000fd5b505050506040513d60208110156117ed57600080fd5b5051116117f957600080fd5b600160a060020a038216600090815260008051602061276d833981519152602052604090205461182f903463ffffffff6121e716565b600160a060020a0392909216600090815260008051602061276d833981519152602052604090209190915550565b600154600160a060020a031681565b600160a060020a03808d16600090815260046020908152604080832093851683529290529081205483118015906118b45750826118b18e8e8e8e8e8e8e8e8e8e611ecc565b10155b9d9c50505050505050505050505050565b600054600160a060020a031633146118dc57600080fd5b600160a060020a03811615156118f157600080fd5b6001805473ffffffffffffffffffffffffffffffffffffffff1916600160a060020a0392909216919091179055565b600754600160a060020a031681565b600054600160a060020a0316331461194657600080fd5b6003548111156119c6576040805160e560020a62461bcd02815260206004820152602960248201527f4e6577206665652063616e6e6f7420626520686967686572207468616e20746860448201527f65206f6c64206f6e650000000000000000000000000000000000000000000000606482015290519081900360840190fd5b600355565b600054600160a060020a031633146119e257600080fd5b6000805473ffffffffffffffffffffffffffffffffffffffff1916600160a060020a0392909216919091179055565b600160a060020a0382161515611a97576040805160e560020a62461bcd02815260206004820152602d60248201527f43616e6e6f74207769746864726177204554482077697468207769746864726160448201527f77546f6b656e206d6574686f6400000000000000000000000000000000000000606482015290519081900360840190fd5b600160a060020a0382166000908152600460209081526040808320338452909152902054811115611b38576040805160e560020a62461bcd02815260206004820152602260248201527f43616e6e6f74207769746864726177206d6f7265207468616e20796f7520686160448201527f7665000000000000000000000000000000000000000000000000000000000000606482015290519081900360840190fd5b600160a060020a0382166000908152600460209081526040808320338452909152902054611b6690826123e9565b600160a060020a0383166000818152600460208181526040808420338086529083528185209690965580517fa9059cbb00000000000000000000000000000000000000000000000000000000815292830195909552602482018690529351929363a9059cbb9360448084019492939192918390030190829087803b158015611bed57600080fd5b505af1158015611c01573d6000803e3d6000fd5b505050506040513d6020811015611c1757600080fd5b50511515611c6f576040805160e560020a62461bcd02815260206004820152601e60248201527f4572726f72207768696c65207472616e73666572696e6720746f6b656e730000604482015290519081900360640190fd5b600160a060020a03821660008181526004602090815260408083203380855290835292819020548151948552918401929092528282018490526060830152517ff341246adaac6f497bc2a656f546ab9e182111d630394f0c57c710a59a2cb5679181900360800190a15050565b60095481565b600560209081526000928352604080842090915290825290205460ff1681565b600854600090600160a060020a03161515611d1c57600080fd5b611d246123fe565b9050611d2f816124c7565b611d398183612586565b6040805133815290517f0e3e9a671666295c299b941a07625839915442794bf73a484b24bb3e221270c39181900360200190a15050565b60035481565b33600090815260008051602061276d8339815191526020526040902054611d9d90346121e7565b33600081815260008051602061276d8339815191526020908152604080832085905580519283529082019290925234818301526060810192909252517fdcbc1c05240f31ff3ad067ef1ee35ce4997762752e3a095284754544f4c709d79181900360800190a1565b600854600160a060020a031681565b600054600160a060020a03163314611e2b57600080fd5b6008805474ff0000000000000000000000000000000000000000191674010000000000000000000000000000000000000000931515939093029290921773ffffffffffffffffffffffffffffffffffffffff1916600160a060020a0391909116179055565b600160a060020a038083166000908152600460209081526040808320938516835292905220545b92915050565b600054600160a060020a031681565b604080516c01000000000000000000000000308102602080840191909152600160a060020a03808f1683026034850152604884018e90528c169091026068830152607c82018a9052609c820189905260bc8083018990528351808403909101815260dc909201928390528151600093849384938493600293918291908401908083835b60208310611f6e5780518252601f199092019160209182019101611f4f565b51815160209384036101000a600019018019909216911617905260405191909301945091925050808303816000865af1158015611faf573d6000803e3d6000fd5b5050506040513d6020811015611fc457600080fd5b5051600160a060020a038916600090815260056020908152604080832084845290915290205490935060ff1680612137575087600160a060020a031660018460405160200180807f19457468657265756d205369676e6564204d6573736167653a0a333200000000815250601c0182600019166000191681526020019150506040516020818303038152906040526040518082805190602001908083835b602083106120815780518252601f199092019160209182019101612062565b6001836020036101000a0380198251168184511680821785525050505050509050019150506040518091039020898989604051600081526020016040526040518085600019166000191681526020018460ff1660ff1681526020018360001916600019168152602001826000191660001916815260200194505050505060206040516020810390808403906000865af1158015612122573d6000803e3d6000fd5b50505060206040510351600160a060020a0316145b80156121435750894311155b151561215257600093506121d6565b600160a060020a0388166000908152600660209081526040808320868452909152902054612181908e906123e9565b600160a060020a03808e166000908152600460209081526040808320938d16835292905220549092508b906121b6908f61274a565b8115156121bf57fe5b049050808210156121d2578193506121d6565b8093505b5050509a9950505050505050505050565b8181018281108015906121fa5750818110155b1515611eb757600080fd5b600080670de0b6b3a764000061221d8460025461274a565b81151561222657fe5b049150670de0b6b3a764000061223e8460035461274a565b81151561224757fe5b600160a060020a038a16600090815260046020908152604080832033845290915290205491900491506122839061227e85846121e7565b6123e9565b600160a060020a03898116600090815260046020908152604080832033845290915280822093909355908616815220546122c6906122c185856123e9565b6121e7565b600160a060020a03898116600090815260046020908152604080832089851684529091528082209390935560015490911681522054612309906122c184846121e7565b600160a060020a03808a166000908152600460208181526040808420600154861685528252808420959095558a841683529081528382209288168252919091522054612369908861235a888761274a565b81151561236357fe5b046123e9565b600160a060020a0387811660009081526004602090815260408083209389168352929052818120929092553382529020546123b890886123a9888761274a565b8115156123b257fe5b046121e7565b600160a060020a03909616600090815260046020908152604080832033845290915290209590955550505050505050565b6000828211156123f857600080fd5b50900390565b600854600090600160a060020a031681805b60148261ffff1610156124bf5782600160a060020a031663d8787fde6040518163ffffffff1660e060020a028152600401602060405180830381600087803b15801561245b57600080fd5b505af115801561246f573d6000803e3d6000fd5b505050506040513d602081101561248557600080fd5b50519050600160a060020a03811630141561249f57600080fd5b600160a060020a03811615156124b4576124bf565b915060010181612410565b509092915050565b33600090815260008051602061276d8339815191526020526040812054908111156125825733600081815260008051602061276d833981519152602052604080822082905580517f65d9d8e2000000000000000000000000000000000000000000000000000000008152600481019390935251600160a060020a038516926365d9d8e292859260248084019382900301818588803b15801561256857600080fd5b505af115801561257c573d6000803e3d6000fd5b50505050505b5050565b600080805b83518361ffff16101561274357838361ffff168151811015156125aa57fe5b602090810290910101519150600160a060020a03821615156125cb57600080fd5b50600160a060020a03811660009081526004602090815260408083203384529091529020548015156125fc57612738565b81600160a060020a031663095ea7b386836040518363ffffffff1660e060020a0281526004018083600160a060020a0316600160a060020a0316815260200182815260200192505050602060405180830381600087803b15801561265f57600080fd5b505af1158015612673573d6000803e3d6000fd5b505050506040513d602081101561268957600080fd5b5051151561269657600080fd5b600160a060020a03808316600081815260046020818152604080842033808652925280842084905580517f3c2e2a7500000000000000000000000000000000000000000000000000000000815292830194909452602482018690526044820152915192881692633c2e2a7592606480820193929182900301818387803b15801561271f57600080fd5b505af1158015612733573d6000803e3d6000fd5b505050505b60019092019161258b565b5050505050565b8181028215806121fa575081838281151561276157fe5b0414611eb757600080fd0017ef568e3e12ab5b9c7254a8d58478811de00f9e6eb34345acd53bf8fd09d3eca165627a7a7230582078841aadf71db8abdd4c571906e6352d145475df5ab26f99b05efd3af7a2bc080029",
  "source": "pragma solidity 0.4.24;\r\n\r\nimport \"./SafeMath.sol\";\r\nimport \"./ERC20.sol\";\r\n\r\n\r\ncontract EtherDEX {\r\n    using SafeMath for uint;\r\n\r\n    address public admin; //the admin address\r\n    address public feeAccount; //the account that will receive fees\r\n    uint public feeMake; //percentage times (1 ether)\r\n    uint public feeTake; //percentage times (1 ether)\r\n    mapping(address => mapping(address => uint)) public tokens; //mapping of token addresses to mapping of account balances (token=0 means Ether)\r\n    mapping(address => mapping(bytes32 => bool)) public orders; //mapping of user accounts to mapping of order hashes to booleans (true = submitted by user, equivalent to offchain signature)\r\n    mapping(address => mapping(bytes32 => uint)) public orderFills; //mapping of user accounts to mapping of order hashes to uints (amount of order that has been filled)\r\n\r\n    address public previousContract;\r\n    address public nextContract;\r\n    bool public isContractDeprecated;\r\n    uint public contractVersion;\r\n\r\n    event Order(address tokenGet, uint amountGet, address tokenGive, uint amountGive, uint expires, uint nonce, address user);\r\n    event Cancel(address tokenGet, uint amountGet, address tokenGive, uint amountGive, uint expires, uint nonce, address user, uint8 v, bytes32 r, bytes32 s);\r\n    event Trade(address tokenGet, uint amountGet, address tokenGive, uint amountGive, address get, address give);\r\n    event Deposit(address token, address user, uint amount, uint balance);\r\n    event Withdraw(address token, address user, uint amount, uint balance);\r\n    event FundsMigrated(address user);\r\n\r\n    modifier onlyAdmin() {\r\n        require(msg.sender == admin);\r\n        _;\r\n    }\r\n\r\n    constructor(address admin_, address feeAccount_, uint feeMake_, uint feeTake_, address _previousContract) public {\r\n        admin = admin_;\r\n        feeAccount = feeAccount_;\r\n        feeMake = feeMake_;\r\n        feeTake = feeTake_;\r\n        previousContract = _previousContract;\r\n        isContractDeprecated = false;\r\n\r\n        //count new contract version if it's not the first\r\n        if (previousContract != address(0)) {\r\n            contractVersion = EtherDEX(previousContract).contractVersion() + 1;\r\n        } else {\r\n            contractVersion = 1;\r\n        }\r\n    }\r\n\r\n    function() public payable {\r\n        revert(\"Cannot send ETH directly to the Contract\");\r\n    }\r\n\r\n    function changeAdmin(address admin_) public onlyAdmin {\r\n        admin = admin_;\r\n    }\r\n\r\n    function changeFeeAccount(address feeAccount_) public onlyAdmin {\r\n        require(feeAccount_ != address(0));\r\n        feeAccount = feeAccount_;\r\n    }\r\n\r\n    function changeFeeMake(uint feeMake_) public onlyAdmin {\r\n        if (feeMake_ > feeMake) revert(\"New fee cannot be higher than the old one\");\r\n        feeMake = feeMake_;\r\n    }\r\n\r\n    function changeFeeTake(uint feeTake_) public onlyAdmin {\r\n        if (feeTake_ > feeTake) revert(\"New fee cannot be higher than the old one\");\r\n        feeTake = feeTake_;\r\n    }\r\n\r\n    function deprecate(bool deprecated_, address nextContract_) public onlyAdmin {\r\n        isContractDeprecated = deprecated_;\r\n        nextContract = nextContract_;\r\n    }\r\n\r\n    function deposit() public payable {\r\n        tokens[0][msg.sender] = SafeMath.add(tokens[0][msg.sender], msg.value);\r\n        emit Deposit(0, msg.sender, msg.value, tokens[0][msg.sender]);\r\n    }\r\n\r\n    function withdraw(uint amount) public {\r\n        if (tokens[0][msg.sender] < amount) revert(\"Cannot withdraw more than you have\");\r\n        tokens[0][msg.sender] = SafeMath.sub(tokens[0][msg.sender], amount);\r\n        msg.sender.transfer(amount);\r\n        //or .send() and check if https://ethereum.stackexchange.com/a/38642\r\n        emit Withdraw(0, msg.sender, amount, tokens[0][msg.sender]);\r\n    }\r\n\r\n    function depositToken(address token, uint amount) public {\r\n        //remember to call ERC20Token(address).approve(this, amount) or this contract will not be able to do the transfer on your behalf.\r\n        if (token == 0) revert(\"Cannot deposit ETH with depositToken method\");\r\n        if (!ERC20(token).transferFrom(msg.sender, this, amount)) revert(\"You didn't call approve method on Token contract\");\r\n        tokens[token][msg.sender] = SafeMath.add(tokens[token][msg.sender], amount);\r\n        emit Deposit(token, msg.sender, amount, tokens[token][msg.sender]);\r\n    }\r\n\r\n    function withdrawToken(address token, uint amount) public {\r\n        if (token == 0) revert(\"Cannot withdraw ETH with withdrawToken method\");\r\n        if (tokens[token][msg.sender] < amount) revert(\"Cannot withdraw more than you have\");\r\n        tokens[token][msg.sender] = SafeMath.sub(tokens[token][msg.sender], amount);\r\n        if (!ERC20(token).transfer(msg.sender, amount)) revert(\"Error while transfering tokens\");\r\n        emit Withdraw(token, msg.sender, amount, tokens[token][msg.sender]);\r\n    }\r\n\r\n    function balanceOf(address token, address user) public view returns (uint) {\r\n        return tokens[token][user];\r\n    }\r\n\r\n    function order(address tokenGet, uint amountGet, address tokenGive, uint amountGive, uint expires, uint nonce) public {\r\n        bytes32 hash = sha256(abi.encodePacked(this, tokenGet, amountGet, tokenGive, amountGive, expires, nonce));\r\n        orders[msg.sender][hash] = true;\r\n        emit Order(tokenGet, amountGet, tokenGive, amountGive, expires, nonce, msg.sender);\r\n    }\r\n\r\n    function trade(address tokenGet, uint amountGet, address tokenGive, uint amountGive, uint expires, uint nonce, address user, uint8 v, bytes32 r, bytes32 s, uint amount) public {\r\n        //amount is in amountGet terms\r\n        bytes32 hash = sha256(abi.encodePacked(this, tokenGet, amountGet, tokenGive, amountGive, expires, nonce));\r\n        if (!(\r\n        (orders[user][hash] || ecrecover(keccak256(abi.encodePacked(\"\\x19Ethereum Signed Message:\\n32\", hash)), v, r, s) == user) &&\r\n        block.number <= expires &&\r\n        SafeMath.add(orderFills[user][hash], amount) <= amountGet\r\n        ))  revert(\"Validation error or order expired or not enough volume to trade\");\r\n        tradeBalances(tokenGet, amountGet, tokenGive, amountGive, user, amount);\r\n        orderFills[user][hash] = SafeMath.add(orderFills[user][hash], amount);\r\n        emit Trade(tokenGet, amount, tokenGive, amountGive * amount / amountGet, user, msg.sender);\r\n    }\r\n\r\n    function testTrade(address tokenGet, uint amountGet, address tokenGive, uint amountGive, uint expires, uint nonce, address user, uint8 v, bytes32 r, bytes32 s, uint amount, address sender) public view returns (bool) {\r\n        return (tokens[tokenGet][sender] >= amount && availableVolume(tokenGet, amountGet, tokenGive, amountGive, expires, nonce, user, v, r, s) >= amount);\r\n    }\r\n\r\n    function availableVolume(address tokenGet, uint amountGet, address tokenGive, uint amountGive, uint expires, uint nonce, address user, uint8 v, bytes32 r, bytes32 s) public view returns (uint) {\r\n        bytes32 hash = sha256(abi.encodePacked(this, tokenGet, amountGet, tokenGive, amountGive, expires, nonce));\r\n        if (!((orders[user][hash] || ecrecover(keccak256(abi.encodePacked(\"\\x19Ethereum Signed Message:\\n32\", hash)), v, r, s) == user) && block.number <= expires)) return 0;\r\n        uint available1 = SafeMath.sub(amountGet, orderFills[user][hash]);\r\n        uint available2 = SafeMath.mul(tokens[tokenGive][user], amountGet) / amountGive;\r\n        if (available1 < available2) return available1;\r\n        return available2;\r\n    }\r\n\r\n    function amountFilled(address tokenGet, uint amountGet, address tokenGive, uint amountGive, uint expires, uint nonce, address user) public view returns (uint) {\r\n        bytes32 hash = sha256(abi.encodePacked(this, tokenGet, amountGet, tokenGive, amountGive, expires, nonce));\r\n        return orderFills[user][hash];\r\n    }\r\n\r\n    function cancelOrder(address tokenGet, uint amountGet, address tokenGive, uint amountGive, uint expires, uint nonce, uint8 v, bytes32 r, bytes32 s) public {\r\n        bytes32 hash = sha256(abi.encodePacked(this, tokenGet, amountGet, tokenGive, amountGive, expires, nonce));\r\n        if (!(orders[msg.sender][hash] || ecrecover(keccak256(abi.encodePacked(\"\\x19Ethereum Signed Message:\\n32\", hash)), v, r, s) == msg.sender)) revert(\"Validation error\");\r\n        orderFills[msg.sender][hash] = amountGet;\r\n        emit Cancel(tokenGet, amountGet, tokenGive, amountGive, expires, nonce, msg.sender, v, r, s);\r\n    }\r\n\r\n    function migrateFunds(address[] tokens_) public {\r\n        // Get the latest successor in the chain\r\n        require(nextContract != address(0));\r\n        EtherDEX newExchange = findNewExchangeContract();\r\n\r\n        // Ether\r\n        migrateEther(newExchange);\r\n\r\n        // Tokens\r\n        migrateTokens(newExchange, tokens_);\r\n\r\n        emit FundsMigrated(msg.sender);\r\n    }\r\n\r\n    function depositEtherForUser(address _user) public payable {\r\n        require(!isContractDeprecated);\r\n        require(_user != address(0));\r\n        require(msg.value > 0);\r\n        EtherDEX caller = EtherDEX(msg.sender);\r\n        require(caller.contractVersion() > 0); // Make sure it's an exchange account\r\n        tokens[0][_user] = tokens[0][_user].add(msg.value);\r\n    }\r\n\r\n    function depositTokenForUser(address _token, uint _amount, address _user) public {\r\n        require(!isContractDeprecated);\r\n        require(_token != address(0));\r\n        require(_user != address(0));\r\n        require(_amount > 0);\r\n        EtherDEX caller = EtherDEX(msg.sender);\r\n        require(caller.contractVersion() > 0); // Make sure it's an exchange account\r\n        if (!ERC20(_token).transferFrom(msg.sender, this, _amount)) {\r\n            revert();\r\n        }\r\n        tokens[_token][_user] = tokens[_token][_user].add(_amount);\r\n    }\r\n\r\n    function tradeBalances(address tokenGet, uint amountGet, address tokenGive, uint amountGive, address user, uint amount) private {\r\n        uint feeMakeXfer = SafeMath.mul(amount, feeMake) / (1 ether);\r\n        uint feeTakeXfer = SafeMath.mul(amount, feeTake) / (1 ether);\r\n\r\n        tokens[tokenGet][msg.sender] = SafeMath.sub(tokens[tokenGet][msg.sender], SafeMath.add(amount, feeTakeXfer));\r\n        tokens[tokenGet][user] = SafeMath.add(tokens[tokenGet][user], SafeMath.sub(amount, feeMakeXfer));\r\n        tokens[tokenGet][feeAccount] = SafeMath.add(tokens[tokenGet][feeAccount], SafeMath.add(feeMakeXfer, feeTakeXfer));\r\n        tokens[tokenGive][user] = SafeMath.sub(tokens[tokenGive][user], SafeMath.mul(amountGive, amount) / amountGet);\r\n        tokens[tokenGive][msg.sender] = SafeMath.add(tokens[tokenGive][msg.sender], SafeMath.mul(amountGive, amount) / amountGet);\r\n    }\r\n\r\n    function findNewExchangeContract() private view returns (EtherDEX) {\r\n        EtherDEX newExchange = EtherDEX(nextContract);\r\n        for (uint16 n = 0; n < 20; n++) {// We will look past 20 contracts in the future\r\n            address nextContract_ = newExchange.nextContract();\r\n            if (nextContract_ == address(this)) {// Circular succession\r\n                revert();\r\n            }\r\n            if (nextContract_ == address(0)) {// We reached the newest, stop\r\n                break;\r\n            }\r\n            newExchange = EtherDEX(nextContract_);\r\n        }\r\n        return newExchange;\r\n    }\r\n\r\n    function migrateEther(EtherDEX newExchange) private {\r\n        uint etherAmount = tokens[0][msg.sender];\r\n        if (etherAmount > 0) {\r\n            tokens[0][msg.sender] = 0;\r\n            newExchange.depositEtherForUser.value(etherAmount)(msg.sender);\r\n        }\r\n    }\r\n\r\n    function migrateTokens(EtherDEX newExchange, address[] tokens_) private {\r\n        for (uint16 n = 0; n < tokens_.length; n++) {\r\n            address token = tokens_[n];\r\n            require(token != address(0));\r\n            // 0 = Ether, we handle it above\r\n            uint tokenAmount = tokens[token][msg.sender];\r\n            if (tokenAmount == 0) {\r\n                continue;\r\n            }\r\n            if (!ERC20(token).approve(newExchange, tokenAmount)) {\r\n                revert();\r\n            }\r\n            tokens[token][msg.sender] = 0;\r\n            newExchange.depositTokenForUser(token, tokenAmount, msg.sender);\r\n        }\r\n    }\r\n}",
  "sourcePath": "C:\\infinite-future\\cryptoexchange\\contract\\contracts\\EtherDEX.sol",
  "compiler": {
    "name": "solc",
    "version": "0.4.24+commit.e67f0147.Emscripten.clang"
  },
  "schemaVersion": "2.0.1",
  "updatedAt": "2018-07-19T08:08:21.695Z"
}